:100000000C9434000C9446000C9446000C9446006A
:100010000C9446000C9446000C9446000C94460048
:100020000C9446000C9446000C9446000C94460038
:100030000C9446000C9446000C9446000C94460028
:100040000C9484000C9446000C9446000C944600DA
:100050000C9446000C9446000C9446000C94460008
:100060000C9446000C94460011241FBECFEFD8E03C
:10007000DEBFCDBF21E0A0E0B1E001C01D92A23003
:10008000B207E1F70E9498000C94A1000C940000C4
:1000900078948FB7F89490910101913009F431C0B0
:1000A00091E0909301018FBF85E085BD90936E0034
:1000B00080E284B95FB7F89420E030E0912D4DE301
:1000C000B901F901A0910001A03041F09093000125
:1000D0005FBF6F5F7F4FEF4FFF4F01C05FBFBE2F0E
:1000E000A72F51E099306407A207B30708F4512DF8
:1000F0005170503019F083B9B901F9015FB7F89424
:10010000E1CF8FBF0E949C000F920FB60F921F92FB
:1001100011248F939F938FB7F89491E090930001EF
:100120008FBF9F918F911F900F900FBE0F901895CA
:100130000E9448000E94A0000E949E000E949A0017
:06014000FFCFF894FFCF91
:00000001FF
