:100000000C9434000C9446000C9446000C9446006A
:100010000C9446000C9446000C9446000C94460048
:100020000C9446000C9446000C9446000C94460038
:100030000C9446000C9446000C9446000C94460028
:100040000C9490000C9446000C9446000C944600CE
:100050000C9446000C9446000C9446000C94460008
:100060000C9446000C94460011241FBECFEFD8E03C
:10007000DEBFCDBF21E0A0E0B1E001C01D92A23003
:10008000B207E1F70E94A4000C94AD000C940000AC
:100090000F931F939FB7F89480910101813009F469
:1000A0003CC081E0809301019FBF95E095BD8093A6
:1000B0006E00789490E294B9AFB7F89420E030E005
:1000C000912D4DE3B901F901592FB0910001B030E4
:1000D00041F090930001AFBF6F5F7F4FEF4FFF4F35
:1000E00001C0AFBF1E2F072FA1E0993064070207A0
:1000F000130708F4A12DA170A03061F060E265B98A
:10010000652F61706030612D09F460E265B9582790
:10011000B901F901AFB7F894D8CF9FBF0E94A800EA
:100120000F920FB60F921F9211248F939F938FB748
:10013000F89491E0909300018FBF9F918F911F9051
:100140000F900FBE0F9018950E9448000E94AC00BF
:0E0150000E94AA000E94A600FFCFF894FFCFE5
:00000001FF
