:100000000C9434000C9446000C9446000C9446006A
:100010000C9446000C9446000C9446000C94460048
:100020000C9446000C9446000C9446000C94460038
:100030000C9446000C9446000C9446000C94460028
:100040000C9446000C9446000C9446000C94460018
:100050000C9446000C9446000C9446000C94460008
:100060000C9446000C94460011241FBECFEFD8E03C
:10007000DEBFCDBF21E0A0E0B1E001C01D92A13004
:10008000B207E1F70E949A000C94A3000C940000C0
:100090000F931F939FB7F89480910001813009F46A
:1000A00046C081E0809300019FBF95E095BD90E23E
:1000B00094B995B920E030E09DE3A901B901A12DE3
:1000C000E12DF6B5FA1770F40A2F1127AF2FBB27D1
:1000D000A01BB10B890100401040A050BF4F0F4F33
:1000E0001F4F05C0BF2FBA1BAB2FBB2789014A0F7B
:1000F0005B1F601F711FA1E04A3059076207730739
:1001000008F0A12DA170A030AF2F09F0DACFA0E246
:10011000A5B9AE2FA170A030A12D09F4A0E2A5B918
:10012000E82749505D4360407040AF2FCACF9FBF62
:100130000E949E000E9448000E94A2000E94A0000F
:0A0140000E949C00FFCFF894FFCF4F
:00000001FF
