:100000000C9434000C9446000C9446000C9446006A
:100010000C9446000C9446000C9446000C94460048
:100020000C9446000C9446000C9446000C94460038
:100030000C9446000C9446000C9446000C94460028
:100040000C946C000C9446000C9446000C944600F2
:100050000C9446000C9446000C9446000C94460008
:100060000C9446000C94460011241FBECFEFD8E03C
:10007000DEBFCDBF21E0A0E0B1E001C01D92A53000
:10008000B207E1F70E94C0000C94CD000C94000070
:100090009FB7F89480910401813009F418C081E081
:1000A000809304019FBF95E095BD80936E0090E220
:1000B00094B99FB7F8942091010130910201211564
:1000C000310541F4809303019FBF7894FFCF9FBF18
:1000D0000E94C8000E94C2000F920FB60F921F929A
:1000E00011242F933F934F935F936F937F938F933D
:1000F0009F93AF93BF93EF93FF938FB7F894909133
:1001000000019395909300018FBF9D3308F425C0A3
:100110008FB7F894109200012091010130910201F3
:100120002115310509F02AC02FEF3FEF309302016E
:100130002093010190910301913041F490E293B931
:10014000E0910101F0910201319602C0E0E0F0E09F
:10015000F0930201E09301018FBFFF91EF91BF91F6
:10016000AF919F918F917F916F915F914F913F914F
:100170002F911F900F900FBE0F9018950E94C200F4
:100180000E9448000E94C4000E94C6000E94CC0049
:0E0190000E94CA000E94C600FFCFF894FFCF65
:00000001FF
