:100000000C9434000C9446000C9446000C9446006A
:100010000C9446000C9446000C9446000C94460048
:100020000C9446000C9446000C9446000C94460038
:100030000C9446000C9446000C9446000C94460028
:100040000C94AC000C9446000C9446000C944600B2
:100050000C9446000C9446000C9446000C94460008
:100060000C9446000C94460011241FBECFEFD8E03C
:10007000DEBFCDBF21E0A0E0B1E001C01D92A43001
:10008000B207E1F70E94C0000C94CD000C94000070
:100090000F931F9378948FB7F89490910301913048
:1000A00019F48FBF0E94C80091E0909303018FBFA5
:1000B00085E085BD90936E0080E284B99FB7F89487
:1000C00020910101309102012115310509F042C052
:1000D0009FBF5FB7F89420E030E0912D4DE36FEFC4
:1000E0007FEFF901D90110910001103041F0109219
:1000F00000015FBFEF5FFF4FAF4FBF4F01C05FBF5A
:100100001A2F0F2F51E09930E4070207130708F464
:10011000512D5170503009F41AC05FB7F894E09136
:100120000101F0910201E115F105A1F470930201C2
:100130006093010183B9E0910101F09102013196D0
:10014000F0930201E09301015FBFF901D9015FB7AC
:10015000F894C9CF0E94C2000F920FB60F921F925F
:1001600011248F939F938FB7F89491E0909300019F
:100170008FBF9F918F911F900F900FBE0F9018957A
:100180000E9448000E94C4000E94C6000E94CC0049
:0E0190000E94CA000E94C600FFCFF894FFCF65
:00000001FF
