:100000000C9434000C9446000C9446000C9446006A
:100010000C9446000C9446000C9446000C94460048
:100020000C9446000C9446000C9446000C94460038
:100030000C9446000C9446000C9446000C94460028
:100040000C946C000C9446000C9446000C944600F2
:100050000C9446000C9446000C9446000C94460008
:100060000C9446000C94460011241FBECFEFD8E03C
:10007000DEBFCDBF21E0A0E0B1E001C01D92A730FE
:10008000B207E1F70E94D3000C94E0000C9400004A
:100090009FB7F89480910601813009F418C081E07F
:1000A000809306019FBF95E095BD80936E0090E21E
:1000B00094B99FB7F8942091030130910401211560
:1000C000310541F4809305019FBF7894FFCF9FBF16
:1000D0000E94DB000E94D5000F920FB60F921F9274
:1000E00011242F933F934F935F936F937F938F933D
:1000F0009F93AF93BF93EF93FF93809100019091F3
:1001000001018115910509F04CC08FEF9FEF90938D
:1001100001018093000120910201239520930201A7
:100120002D3308F41FC01092020120910301309179
:1001300004012115310509F034C090930401809326
:10014000030180910501813081F480E283B98091BF
:100150000001909101010196E0910301F0910401E9
:10016000319606C080E090E007C080E090E0FC019E
:10017000F0930401E0930301909301018093000147
:10018000FF91EF91BF91AF919F918F917F916F916F
:100190005F914F913F912F911F900F900FBE0F9045
:1001A00018950E94D5000E9448000E94D7000E9426
:1001B000D9000E94DF000E94DD000E94D900FFCF1D
:0401C000F894FFCFE1
:00000001FF
